{"abi":[{"type":"constructor","inputs":[],"stateMutability":"nonpayable"},{"type":"function","name":"allowance","inputs":[{"name":"owner","type":"address","internalType":"address"},{"name":"spender","type":"address","internalType":"address"}],"outputs":[{"name":"","type":"uint256","internalType":"uint256"}],"stateMutability":"view"},{"type":"function","name":"approve","inputs":[{"name":"spender","type":"address","internalType":"address"},{"name":"value","type":"uint256","internalType":"uint256"}],"outputs":[{"name":"","type":"bool","internalType":"bool"}],"stateMutability":"nonpayable"},{"type":"function","name":"balanceOf","inputs":[{"name":"account","type":"address","internalType":"address"}],"outputs":[{"name":"","type":"uint256","internalType":"uint256"}],"stateMutability":"view"},{"type":"function","name":"decimals","inputs":[],"outputs":[{"name":"","type":"uint8","internalType":"uint8"}],"stateMutability":"view"},{"type":"function","name":"name","inputs":[],"outputs":[{"name":"","type":"string","internalType":"string"}],"stateMutability":"view"},{"type":"function","name":"sayHi","inputs":[{"name":"greeting","type":"string","internalType":"string"}],"outputs":[],"stateMutability":"nonpayable"},{"type":"function","name":"setGreeting","inputs":[],"outputs":[{"name":"","type":"string","internalType":"string"}],"stateMutability":"view"},{"type":"function","name":"symbol","inputs":[],"outputs":[{"name":"","type":"string","internalType":"string"}],"stateMutability":"view"},{"type":"function","name":"totalSupply","inputs":[],"outputs":[{"name":"","type":"uint256","internalType":"uint256"}],"stateMutability":"view"},{"type":"function","name":"transfer","inputs":[{"name":"to","type":"address","internalType":"address"},{"name":"value","type":"uint256","internalType":"uint256"}],"outputs":[{"name":"","type":"bool","internalType":"bool"}],"stateMutability":"nonpayable"},{"type":"function","name":"transferFrom","inputs":[{"name":"from","type":"address","internalType":"address"},{"name":"to","type":"address","internalType":"address"},{"name":"value","type":"uint256","internalType":"uint256"}],"outputs":[{"name":"","type":"bool","internalType":"bool"}],"stateMutability":"nonpayable"},{"type":"event","name":"Approval","inputs":[{"name":"owner","type":"address","indexed":true,"internalType":"address"},{"name":"spender","type":"address","indexed":true,"internalType":"address"},{"name":"value","type":"uint256","indexed":false,"internalType":"uint256"}],"anonymous":false},{"type":"event","name":"Transfer","inputs":[{"name":"from","type":"address","indexed":true,"internalType":"address"},{"name":"to","type":"address","indexed":true,"internalType":"address"},{"name":"value","type":"uint256","indexed":false,"internalType":"uint256"}],"anonymous":false},{"type":"error","name":"ERC20InsufficientAllowance","inputs":[{"name":"spender","type":"address","internalType":"address"},{"name":"allowance","type":"uint256","internalType":"uint256"},{"name":"needed","type":"uint256","internalType":"uint256"}]},{"type":"error","name":"ERC20InsufficientBalance","inputs":[{"name":"sender","type":"address","internalType":"address"},{"name":"balance","type":"uint256","internalType":"uint256"},{"name":"needed","type":"uint256","internalType":"uint256"}]},{"type":"error","name":"ERC20InvalidApprover","inputs":[{"name":"approver","type":"address","internalType":"address"}]},{"type":"error","name":"ERC20InvalidReceiver","inputs":[{"name":"receiver","type":"address","internalType":"address"}]},{"type":"error","name":"ERC20InvalidSender","inputs":[{"name":"sender","type":"address","internalType":"address"}]},{"type":"error","name":"ERC20InvalidSpender","inputs":[{"name":"spender","type":"address","internalType":"address"}]}],"bytecode":{"object":"0x608060405234801561000f575f5ffd5b506040518060400160405280601181526020017f53696d706c65204465666920546f6b656e0000000000000000000000000000008152506040518060400160405280600481526020017f4e424c4400000000000000000000000000000000000000000000000000000000815250816003908161008b9190610598565b50806004908161009b9190610598565b5050506100b83369d3c21bcecceda10000006100bd60201b60201c565b61077c565b5f73ffffffffffffffffffffffffffffffffffffffff168273ffffffffffffffffffffffffffffffffffffffff160361012d575f6040517fec442f0500000000000000000000000000000000000000000000000000000000815260040161012491906106a6565b60405180910390fd5b61013e5f838361014260201b60201c565b5050565b5f73ffffffffffffffffffffffffffffffffffffffff168373ffffffffffffffffffffffffffffffffffffffff1603610192578060025f82825461018691906106ec565b92505081905550610260565b5f5f5f8573ffffffffffffffffffffffffffffffffffffffff1673ffffffffffffffffffffffffffffffffffffffff1681526020019081526020015f205490508181101561021b578381836040517fe450d38c0000000000000000000000000000000000000000000000000000000081526004016102129392919061072e565b60405180910390fd5b8181035f5f8673ffffffffffffffffffffffffffffffffffffffff1673ffffffffffffffffffffffffffffffffffffffff1681526020019081526020015f2081905550505b5f73ffffffffffffffffffffffffffffffffffffffff168273ffffffffffffffffffffffffffffffffffffffff16036102a7578060025f82825403925050819055506102f1565b805f5f8473ffffffffffffffffffffffffffffffffffffffff1673ffffffffffffffffffffffffffffffffffffffff1681526020019081526020015f205f82825401925050819055505b8173ffffffffffffffffffffffffffffffffffffffff168373ffffffffffffffffffffffffffffffffffffffff167fddf252ad1be2c89b69c2b068fc378daa952ba7f163c4a11628f55a4df523b3ef8360405161034e9190610763565b60405180910390a3505050565b5f81519050919050565b7f4e487b71000000000000000000000000000000000000000000000000000000005f52604160045260245ffd5b7f4e487b71000000000000000000000000000000000000000000000000000000005f52602260045260245ffd5b5f60028204905060018216806103d657607f821691505b6020821081036103e9576103e8610392565b5b50919050565b5f819050815f5260205f209050919050565b5f6020601f8301049050919050565b5f82821b905092915050565b5f6008830261044b7fffffffffffffffffffffffffffffffffffffffffffffffffffffffffffffffff82610410565b6104558683610410565b95508019841693508086168417925050509392505050565b5f819050919050565b5f819050919050565b5f61049961049461048f8461046d565b610476565b61046d565b9050919050565b5f819050919050565b6104b28361047f565b6104c66104be826104a0565b84845461041c565b825550505050565b5f5f905090565b6104dd6104ce565b6104e88184846104a9565b505050565b5b8181101561050b576105005f826104d5565b6001810190506104ee565b5050565b601f82111561055057610521816103ef565b61052a84610401565b81016020851015610539578190505b61054d61054585610401565b8301826104ed565b50505b505050565b5f82821c905092915050565b5f6105705f1984600802610555565b1980831691505092915050565b5f6105888383610561565b9150826002028217905092915050565b6105a18261035b565b67ffffffffffffffff8111156105ba576105b9610365565b5b6105c482546103bf565b6105cf82828561050f565b5f60209050601f831160018114610600575f84156105ee578287015190505b6105f8858261057d565b86555061065f565b601f19841661060e866103ef565b5f5b8281101561063557848901518255600182019150602085019450602081019050610610565b86831015610652578489015161064e601f891682610561565b8355505b6001600288020188555050505b505050505050565b5f73ffffffffffffffffffffffffffffffffffffffff82169050919050565b5f61069082610667565b9050919050565b6106a081610686565b82525050565b5f6020820190506106b95f830184610697565b92915050565b7f4e487b71000000000000000000000000000000000000000000000000000000005f52601160045260245ffd5b5f6106f68261046d565b91506107018361046d565b9250828201905080821115610719576107186106bf565b5b92915050565b6107288161046d565b82525050565b5f6060820190506107415f830186610697565b61074e602083018561071f565b61075b604083018461071f565b949350505050565b5f6020820190506107765f83018461071f565b92915050565b6112c0806107895f395ff3fe608060405234801561000f575f5ffd5b50600436106100a7575f3560e01c806370a082311161006f57806370a082311461016557806395d89b4114610195578063a9059cbb146101b3578063af6adf8b146101e3578063c12f7a73146101ff578063dd62ed3e1461021d576100a7565b806306fdde03146100ab578063095ea7b3146100c957806318160ddd146100f957806323b872dd14610117578063313ce56714610147575b5f5ffd5b6100b361024d565b6040516100c09190610b4a565b60405180910390f35b6100e360048036038101906100de9190610c08565b6102dd565b6040516100f09190610c60565b60405180910390f35b6101016102ff565b60405161010e9190610c88565b60405180910390f35b610131600480360381019061012c9190610ca1565b610308565b60405161013e9190610c60565b60405180910390f35b61014f610336565b60405161015c9190610d0c565b60405180910390f35b61017f600480360381019061017a9190610d25565b61033e565b60405161018c9190610c88565b60405180910390f35b61019d610383565b6040516101aa9190610b4a565b60405180910390f35b6101cd60048036038101906101c89190610c08565b610413565b6040516101da9190610c60565b60405180910390f35b6101fd60048036038101906101f89190610e7c565b610435565b005b610207610448565b6040516102149190610b4a565b60405180910390f35b61023760048036038101906102329190610ec3565b6104d4565b6040516102449190610c88565b60405180910390f35b60606003805461025c90610f2e565b80601f016020809104026020016040519081016040528092919081815260200182805461028890610f2e565b80156102d35780601f106102aa576101008083540402835291602001916102d3565b820191905f5260205f20905b8154815290600101906020018083116102b657829003601f168201915b5050505050905090565b5f5f6102e7610556565b90506102f481858561055d565b600191505092915050565b5f600254905090565b5f5f610312610556565b905061031f85828561056f565b61032a858585610602565b60019150509392505050565b5f6012905090565b5f5f5f8373ffffffffffffffffffffffffffffffffffffffff1673ffffffffffffffffffffffffffffffffffffffff1681526020019081526020015f20549050919050565b60606004805461039290610f2e565b80601f01602080910402602001604051908101604052809291908181526020018280546103be90610f2e565b80156104095780601f106103e057610100808354040283529160200191610409565b820191905f5260205f20905b8154815290600101906020018083116103ec57829003601f168201915b5050505050905090565b5f5f61041d610556565b905061042a818585610602565b600191505092915050565b806005908161044491906110fe565b5050565b6005805461045590610f2e565b80601f016020809104026020016040519081016040528092919081815260200182805461048190610f2e565b80156104cc5780601f106104a3576101008083540402835291602001916104cc565b820191905f5260205f20905b8154815290600101906020018083116104af57829003601f168201915b505050505081565b5f60015f8473ffffffffffffffffffffffffffffffffffffffff1673ffffffffffffffffffffffffffffffffffffffff1681526020019081526020015f205f8373ffffffffffffffffffffffffffffffffffffffff1673ffffffffffffffffffffffffffffffffffffffff1681526020019081526020015f2054905092915050565b5f33905090565b61056a83838360016106f2565b505050565b5f61057a84846104d4565b90507fffffffffffffffffffffffffffffffffffffffffffffffffffffffffffffffff8110156105fc57818110156105ed578281836040517ffb8f41b20000000000000000000000000000000000000000000000000000000081526004016105e4939291906111dc565b60405180910390fd5b6105fb84848484035f6106f2565b5b50505050565b5f73ffffffffffffffffffffffffffffffffffffffff168373ffffffffffffffffffffffffffffffffffffffff1603610672575f6040517f96c6fd1e0000000000000000000000000000000000000000000000000000000081526004016106699190611211565b60405180910390fd5b5f73ffffffffffffffffffffffffffffffffffffffff168273ffffffffffffffffffffffffffffffffffffffff16036106e2575f6040517fec442f050000000000000000000000000000000000000000000000000000000081526004016106d99190611211565b60405180910390fd5b6106ed8383836108c1565b505050565b5f73ffffffffffffffffffffffffffffffffffffffff168473ffffffffffffffffffffffffffffffffffffffff1603610762575f6040517fe602df050000000000000000000000000000000000000000000000000000000081526004016107599190611211565b60405180910390fd5b5f73ffffffffffffffffffffffffffffffffffffffff168373ffffffffffffffffffffffffffffffffffffffff16036107d2575f6040517f94280d620000000000000000000000000000000000000000000000000000000081526004016107c99190611211565b60405180910390fd5b8160015f8673ffffffffffffffffffffffffffffffffffffffff1673ffffffffffffffffffffffffffffffffffffffff1681526020019081526020015f205f8573ffffffffffffffffffffffffffffffffffffffff1673ffffffffffffffffffffffffffffffffffffffff1681526020019081526020015f208190555080156108bb578273ffffffffffffffffffffffffffffffffffffffff168473ffffffffffffffffffffffffffffffffffffffff167f8c5be1e5ebec7d5bd14f71427d1e84f3dd0314c0f7b2291e5b200ac8c7c3b925846040516108b29190610c88565b60405180910390a35b50505050565b5f73ffffffffffffffffffffffffffffffffffffffff168373ffffffffffffffffffffffffffffffffffffffff1603610911578060025f8282546109059190611257565b925050819055506109df565b5f5f5f8573ffffffffffffffffffffffffffffffffffffffff1673ffffffffffffffffffffffffffffffffffffffff1681526020019081526020015f205490508181101561099a578381836040517fe450d38c000000000000000000000000000000000000000000000000000000008152600401610991939291906111dc565b60405180910390fd5b8181035f5f8673ffffffffffffffffffffffffffffffffffffffff1673ffffffffffffffffffffffffffffffffffffffff1681526020019081526020015f2081905550505b5f73ffffffffffffffffffffffffffffffffffffffff168273ffffffffffffffffffffffffffffffffffffffff1603610a26578060025f8282540392505081905550610a70565b805f5f8473ffffffffffffffffffffffffffffffffffffffff1673ffffffffffffffffffffffffffffffffffffffff1681526020019081526020015f205f82825401925050819055505b8173ffffffffffffffffffffffffffffffffffffffff168373ffffffffffffffffffffffffffffffffffffffff167fddf252ad1be2c89b69c2b068fc378daa952ba7f163c4a11628f55a4df523b3ef83604051610acd9190610c88565b60405180910390a3505050565b5f81519050919050565b5f82825260208201905092915050565b8281835e5f83830152505050565b5f601f19601f8301169050919050565b5f610b1c82610ada565b610b268185610ae4565b9350610b36818560208601610af4565b610b3f81610b02565b840191505092915050565b5f6020820190508181035f830152610b628184610b12565b905092915050565b5f604051905090565b5f5ffd5b5f5ffd5b5f73ffffffffffffffffffffffffffffffffffffffff82169050919050565b5f610ba482610b7b565b9050919050565b610bb481610b9a565b8114610bbe575f5ffd5b50565b5f81359050610bcf81610bab565b92915050565b5f819050919050565b610be781610bd5565b8114610bf1575f5ffd5b50565b5f81359050610c0281610bde565b92915050565b5f5f60408385031215610c1e57610c1d610b73565b5b5f610c2b85828601610bc1565b9250506020610c3c85828601610bf4565b9150509250929050565b5f8115159050919050565b610c5a81610c46565b82525050565b5f602082019050610c735f830184610c51565b92915050565b610c8281610bd5565b82525050565b5f602082019050610c9b5f830184610c79565b92915050565b5f5f5f60608486031215610cb857610cb7610b73565b5b5f610cc586828701610bc1565b9350506020610cd686828701610bc1565b9250506040610ce786828701610bf4565b9150509250925092565b5f60ff82169050919050565b610d0681610cf1565b82525050565b5f602082019050610d1f5f830184610cfd565b92915050565b5f60208284031215610d3a57610d39610b73565b5b5f610d4784828501610bc1565b91505092915050565b5f5ffd5b5f5ffd5b7f4e487b71000000000000000000000000000000000000000000000000000000005f52604160045260245ffd5b610d8e82610b02565b810181811067ffffffffffffffff82111715610dad57610dac610d58565b5b80604052505050565b5f610dbf610b6a565b9050610dcb8282610d85565b919050565b5f67ffffffffffffffff821115610dea57610de9610d58565b5b610df382610b02565b9050602081019050919050565b828183375f83830152505050565b5f610e20610e1b84610dd0565b610db6565b905082815260208101848484011115610e3c57610e3b610d54565b5b610e47848285610e00565b509392505050565b5f82601f830112610e6357610e62610d50565b5b8135610e73848260208601610e0e565b91505092915050565b5f60208284031215610e9157610e90610b73565b5b5f82013567ffffffffffffffff811115610eae57610ead610b77565b5b610eba84828501610e4f565b91505092915050565b5f5f60408385031215610ed957610ed8610b73565b5b5f610ee685828601610bc1565b9250506020610ef785828601610bc1565b9150509250929050565b7f4e487b71000000000000000000000000000000000000000000000000000000005f52602260045260245ffd5b5f6002820490506001821680610f4557607f821691505b602082108103610f5857610f57610f01565b5b50919050565b5f819050815f5260205f209050919050565b5f6020601f8301049050919050565b5f82821b905092915050565b5f60088302610fba7fffffffffffffffffffffffffffffffffffffffffffffffffffffffffffffffff82610f7f565b610fc48683610f7f565b95508019841693508086168417925050509392505050565b5f819050919050565b5f610fff610ffa610ff584610bd5565b610fdc565b610bd5565b9050919050565b5f819050919050565b61101883610fe5565b61102c61102482611006565b848454610f8b565b825550505050565b5f5f905090565b611043611034565b61104e81848461100f565b505050565b5b81811015611071576110665f8261103b565b600181019050611054565b5050565b601f8211156110b65761108781610f5e565b61109084610f70565b8101602085101561109f578190505b6110b36110ab85610f70565b830182611053565b50505b505050565b5f82821c905092915050565b5f6110d65f19846008026110bb565b1980831691505092915050565b5f6110ee83836110c7565b9150826002028217905092915050565b61110782610ada565b67ffffffffffffffff8111156111205761111f610d58565b5b61112a8254610f2e565b611135828285611075565b5f60209050601f831160018114611166575f8415611154578287015190505b61115e85826110e3565b8655506111c5565b601f19841661117486610f5e565b5f5b8281101561119b57848901518255600182019150602085019450602081019050611176565b868310156111b857848901516111b4601f8916826110c7565b8355505b6001600288020188555050505b505050505050565b6111d681610b9a565b82525050565b5f6060820190506111ef5f8301866111cd565b6111fc6020830185610c79565b6112096040830184610c79565b949350505050565b5f6020820190506112245f8301846111cd565b92915050565b7f4e487b71000000000000000000000000000000000000000000000000000000005f52601160045260245ffd5b5f61126182610bd5565b915061126c83610bd5565b92508282019050808211156112845761128361122a565b5b9291505056fea26469706673582212202b8d8f98427ac9650656352c2fc8fb55a9adc3aac3593ac4172b54a625f6c92364736f6c634300081c0033","linkReferences":{}},"methodIdentifiers":{"allowance(address,address)":"dd62ed3e","approve(address,uint256)":"095ea7b3","balanceOf(address)":"70a08231","decimals()":"313ce567","name()":"06fdde03","sayHi(string)":"af6adf8b","setGreeting()":"c12f7a73","symbol()":"95d89b41","totalSupply()":"18160ddd","transfer(address,uint256)":"a9059cbb","transferFrom(address,address,uint256)":"23b872dd"},"id":5}